:020000040000FA
:10000000B0490010050200000D0200000F020000C0
:1000100011020000130200001502000000000000A1
:1000200000000000000000000000000017020000B7
:1000300019020000000000001B0200001D02000069
:100040001F0200008B540000C5580000D759000063
:10005000B95B0000C55E00001F0200001F02000027
:100060001F0200001F0200001F0200001F0200000C
:100070001F0200001F0200001F0200001F020000FC
:100080001F0200001F0200001F020000215E00008E
:100090004F5E00001F020000695200001F020000B6
:1000A0001F0200001F0200001F0200001F020000CC
:1000B0007F6F00001F0200001F0200001F020000EF
:1000C0001F0200001F0200001F02000000F002F8E3
:1000D00000F088F80AA090E8000C82448344AAF15A
:1000E0000107DA4501D100F07DF8AFF2090EBAE858
:1000F0000F0013F0010F18BFFB1A43F0010318475C
:1001000010160100401601000A444FF0000C10F8D0
:10011000013B13F0070408BF10F8014B1D1108BF85
:1001200010F8015B641E05D010F8016B641E01F825
:10013000016BF9D113F0080F1EBF10F8014BAD1C75
:100140000C1B09D16D1E58BF01F801CBFAD505E093
:1001500014F8016B01F8016B6D1EF9D59142D6D3ED
:10016000704700000023002400250026103A28BF15
:1001700078C1FBD8520728BF30C148BF0B60704719
:100180006E2907F04D81702907F01882692907F060
:100190000B81642907F00881752907F005816F2913
:1001A00007F0B081782907F0FC810368DB0928BFDC
:1001B00041F08001632907F02885732907F02D8518
:1001C000E32907F03885002070471FB507F02AFEA5
:1001D0000400002000210BF079FC401C60601FBD72
:1001E00010B510BD07F0E6FF1146FFF7EEFF04F073
:1001F00074FC08F004F803B4FFF7F2FF03BC08F046
:1002000007F800000948804709480047FEE7FEE775
:10021000FEE7FEE7FEE7FEE7FEE7FEE7FEE7FEE7B6
:1002200004480549054A064B704700009904000040
:10023000CD000000B0430010B0490010B0470010DE
:10024000B047001070B505460C46A4F12000044AE2
:1002500002EB00111022284607F099FB70BD000048
:1002600008C400000748406840F400100549486091
:100270000846406C40F40010486400200249486081
:100280007047000000C0024000C00840AA2041079B
:1002900008725520087270470548C1054860012062
:1002A000086103200870AA20087255200872704760
:1002B00080F0FA020FB41CB5084B06AA7B446946CD
:1002C0000090059807F07FFC04460020694607F07F
:1002D0008DFC20461CBC5DF814FB00002D7900004D
:1002E00070B5064607F00CFC0468054630460A2245
:1002F000002107F0F5FA2C6070BD7047FFFFFFFF8B
:100300002DE9F047B2480068C0F3016003287DD1B1
:10031000AF488430006800F0030030B1012830D0CD
:10032000022859D003282BD100E000BFA84800685C
:10033000C0F30740441C0221A5488838D0F8880043
:10034000C0F30E00401CA1FB0001A24B4FF0000CBB
:10035000A0FB037901FB039100FB0C1122466346CD
:10036000384606F047FF054699487C300068C0B221
:10037000441C22460023284606F03CFF96490860AC
:1003800056E093480068C0F30740441C022190489F
:100390008838D0F88800C0F30E00401CA1FB001084
:1003A0008E4A4FF0000CA1FB027900FB029001FB8A
:1003B0000C0122466346384606F01CFF0546844879
:1003C0007C300068C0B2441C22460023284606F058
:1003D00011FF814908602BE07D480068C0F30740A9
:1003E000441C02217A488838D0F88800C0F30E00F7
:1003F000401CA1FB00124FF400400023A1FB007938
:1004000002FB009001FB0301224600E011E03846A8
:1004100006F0F0FE05466E487C300068C0B2441C11
:1004200022460023284606F0E5FE6B49086000BF1F
:1004300030E067488430006800F0030030B10128E4
:1004400010D0022819D0032823D100E000BF604853
:100450007C300068C0B2401C5E49B1FBF0F05E49E0
:10046000086016E05A487C300068C0B2401C5B4906
:10047000B1FBF0F0584908600BE055487C3000684B
:10048000C0B2401C4FF40041B1FBF0F0524908608B
:1004900000BF00BFBDE8F0872020514908604C48EC
:1004A0008838D0F8A00100F0200030B100BF4C48DF
:1004B000006800F040000028F9D0032044497C3156
:1004C0000860002042498839C1F8A80144490C312C
:1004D000086001203E498431086042483C49091FB8
:1004E0000860AA203A49091D0860552008600120CB
:1004F000374908390860AA203549091D0860552088
:1005000033498839C1F88C0000BF3148006800F0D9
:1005100080600028F9D003202D4908390860AA20FE
:100520002B498839C1F88C0055202949091D0860DC
:1005300000BF2748006800F040700028F9D0232051
:1005400023491C310860AA2021498839C1F8AC0030
:1005500055201F492431086001201D4918310860C9
:10056000AA201B4924310860552019498839C1F84F
:10057000AC0000BF16482030006800F480600028FE
:10058000F8D00320124918310860AA201049883990
:10059000C1F8AC0055200E492431086000BF0C485A
:1005A0002030006800F440700028F8D00E48084958
:1005B0003C310860002006498839C1F8C801084666
:1005C000006820F4704040F48040086070470000EC
:1005D00088C00F4000093D0000000010001BB7005C
:1005E000A0C10F4063000500DE872804FC48006CB2
:1005F00040F0FF00FA4908640846006840F4FF0034
:1006000008600846006A40F0605008620846006CC6
:1006100040F480700864704710B54FF48072F04B5E
:10062000DA65D204DA6392009A6300BF02465B6D1A
:1006300062F30703EA4C636523465B6923F4FF0317
:100640004FF4FF0404EAC2142343E54C636100BF86
:100650004FF080522346DA6300BF4FF08052E04BE8
:100660009A6312159A6500BFDA65D2049A6300BFD7
:100670000A465B6D62F30703D94C636523465B69E9
:1006800023F4FF034FF4FF0404EAC2142343D44CC1
:10069000636100BF4FF080522346DA6300BF4FF022
:1006A0008052CF4B9A6312159A6500BFDA65D20467
:1006B0009A6300BF0A465B6D62F30703C84C63652B
:1006C00023465B6923F4FF034FF4FF0404EAC214DA
:1006D0002343C34C636100BF4FF080522346DA636B
:1006E00000BF4FF08052BE4B9A6312159A6510BD41
:1006F000002109E0002201E0531C9AB240F2754348
:100700009A42F9DB4B1C99B28142F3DB70472DE929
:10071000F041FFF76BFF6420FFF7EAFF002000BF06
:100720004FF48071AE4BD965C904D96389009963D0
:1007300000BF01465B6D61F30703A94D6B652B4656
:100740005B6923F4FF034FF4FF0505EAC1152B4352
:10075000A34D6B6100BF4FF080512B46D96300BFA2
:100760004FF080519E4B99630915996500BF00BFFA
:100770001D46E965C904A9634900A9634900E96305
:1007800000BF1E46366C26F0FF061F463E641E461E
:10079000366826F4FF063E601E46766DF1B21E46B0
:1007A000766906F4FF0541EAD5111E46366C46F01F
:1007B000FF063E641E46366846F4FF063E6000BFF4
:1007C0000B464FF000513D46A9634915A96500BF8E
:1007D0001A4600BF144649F22530844202D0C01C9C
:1007E00084427DD101207F490870B120A52100BF3E
:1007F0004FF480727A4BDA65D204DA6342079A6367
:1008000000BF02465B6D62F30703754D6B652B46B7
:100810005B6923F4FF034FF4FF0505EAC2152B4380
:100820006F4D6B6100BF02072B46DA6300BF4FF0CC
:1008300080526B4B9A6312159A6500BF00BFDA6550
:10084000D2049A6300BF0A465B6D62F30703644DEE
:100850006B652B465B6923F4FF034FF4FF0505EA44
:10086000C2152B435E4D6B6100BF4FF080522B468B
:10087000DA6300BF4FF08052594B9A6312159A65A4
:1008800000BF00BFB12000BF1146D965C904D963BC
:100890004107996300BF01465B6D61F30703504D4B
:1008A0006B652B465B6923F4FF034FF4FF0505EAF4
:1008B000C1152B434A4D6B6100BF01072B46D9631D
:1008C00000BF4FF08051464B99630915996500BFF1
:1008D00000BF1D46E965C904A9634900A96300E09A
:1008E0006BE14900E96300BF1E46366C26F0FF0647
:1008F0001F463E641E46366826F4FF063E601E46CE
:10090000766DF1B21E46766906F4FF0541EAD5110F
:100910001E46366C46F0FF063E641E46366846F4B8
:10092000FF063E6000BF0B464FF000513D46A963F5
:100930004915A96500BF1A4600BF1446A52C53D11E
:10094000032028490870B121002000BF6A152B46FA
:10095000DA65D204DA634A079A6300BF0A465B6D20
:1009600062F307036B652B465B6923F4FF034FF4C7
:10097000FF0505EAC2152B433D466B6100BF0A0720
:100980002B46DA6300BF4FF08052154B9A63121565
:100990009A6500BF00BFDA65D2049A6300BF0246C1
:1009A0005B6D62F307030E4D6B652B465B6923F4A9
:1009B000FF034FF4FF0505EAC2152B43084D6B6199
:1009C00000BF4FF080522B46DA6300BF4FF08052D9
:1009D000034B9A6312159A6500BF00BF07E0000041
:1009E00000C00920040000100220FE49087047F6EC
:1009F000F001E520FFF710FE4FF480710120FFF7B2
:100A00000BFE4FF4E0610220FFF706FE41F23001D9
:100A10000320FFF701FE00210420FFF7FDFD40F257
:100A200007210820FFF7F8FD00210920FFF7F4FD5A
:100A300000210A20FFF7F0FD00210C20FFF7ECFD5C
:100A400000210D20FFF7E8FD00210F20FFF7E4FD56
:100A500000211020FFF7E0FD07211120FFF7DCFD4A
:100A600000211220FFF7D8FD00211320FFF7D4FD4D
:100A700001210720FFF7D0FDC820FFF739FE41F222
:100A800090011020FFF7C8FD40F227211120FFF749
:100A9000C3FD3220FFF72CFE1F211220FFF7BCFD03
:100AA0003220FFF725FE4FF4A8511320FFF7B4FDC5
:100AB00027212920FFF7B0FD0D212B20FFF7ACFDEA
:100AC0003220FFF715FE00212020FFF7A5FD0021B1
:100AD0002120FFF7A1FD00213020FFF79DFD40F20E
:100AE00007713120FFF798FD40F207313220FFF700
:100AF00093FD4FF400713520FFF78EFD082136205D
:100B0000FFF78AFD04213720FFF786FD00213820FA
:100B1000FFF782FD40F207713920FFF77DFD0221CA
:100B20003C20FFF779FD41F604513D20FFF774FDAD
:100B300000215020FFF770FDEF215120FFF76CFDE1
:100B400000215220FFF768FD40F23F115320FFF7CC
:100B500063FD4FF427416020FFF75EFD0121612016
:100B6000FFF75AFD00216A20FFF756FD0021802083
:100B7000FFF752FD00218120FFF74EFD002182206A
:100B8000FFF74AFD00218320FFF746FD0021842066
:100B9000FFF742FD00218520FFF73EFD1021902048
:100BA000FFF73AFD4FF4C0619220FFF735FD40F2A8
:100BB00033110720FFF730FD1AE049F2203084425C
:100BC00016D0B4F5134F13D041F2055084420FD024
:100BD00040F2055084420BD045F20840844207D0D1
:100BE00044F23150844203D0001D844200D000BF43
:100BF0003220FFF77DFDBDE8F08101B588B079486E
:100C0000007809287ED102200590002006900598E2
:100C100004904FF480707449C865C004C8638000B4
:100C2000886304980390039802900298496D60F3DA
:100C300007016D484165406920F4FF014FF4FF0250
:100C4000029802EAC01001436748416100BF4FF0BB
:100C500080506549C86300BF4FF080506249886387
:100C60000015886500BF069804904815C865C00443
:100C7000886304980390039802900298496D60F38A
:100C8000070159484165406920F4FF014FF4FF0214
:100C9000029802EAC01001435348416100BF4FF07F
:100CA00080505149C86300BF4FF080504E4988635F
:100CB0000015886500BF00BF032005900020069046
:100CC000059804904815C865C004C863800088630F
:100CD00004980390039802900298496D60F307010D
:100CE00041484165406920F4FF014FF4FF0202983A
:100CF00002EAC01001433C48416100BF4FF0805000
:100D0000394900E041E2C86300BF4FF080503649E6
:100D100088630015886500BF069804904815C8656B
:100D2000C004886304980390039802900298496D68
:100D300060F307012C484165406920F4FF014FF43E
:100D4000FF02029802EAC01001432748416100BF38
:100D50004FF080502449C86300BF4FF080502249B3
:100D600088630015886500BF00BF0420059000203F
:100D70000690059804904815C865C004C8638000B3
:100D8000886304980390039802900298496D60F379
:100D9000070115484165406920F4FF014FF4FF0247
:100DA000029802EAC01001430F48416100BF4FF0B2
:100DB00080500D49C86300BF4FF080500A498863D6
:100DC0000015886500BF069804904815C865C004E2
:100DD000886304980390039802900298496D60F329
:100DE000070103E00400001000C00920FE4841652F
:100DF000406920F4FF014FF4FF02029802EAC0109C
:100E00000143F948416100BF4FF08050F649C86383
:100E100000BF4FF08050F44988630015886500BF1B
:100E200000BF05200590EF20069005980490481516
:100E3000C865C004C8638000886304980390039861
:100E400002900298496D60F30701E74841654069E7
:100E500020F4FF014FF4FF02029802EAC0100143A0
:100E6000E148416100BF4FF08050DF49C86300BFD7
:100E70004FF08050DC4988630015886500BF0698F4
:100E800004904815C865C0048863049803900398CB
:100E900002900298496D60F30701D34841654069AB
:100EA00020F4FF014FF4FF02029802EAC010014350
:100EB000CD48416100BF4FF08050CB49C86300BFAF
:100EC0004FF08050C84988630015886500BF00BF97
:100ED0000620059000200690059804904815C865E6
:100EE000C004C8638000886304980390039802904C
:100EF0000298496D60F30701BB484165406920F4E1
:100F0000FF014FF4FF02029802EAC0100143B64805
:100F1000416100BF4FF08050B349C86300BF4FF03C
:100F20008050B14988630015886500BF0698049019
:100F30004815C865C004886304980390039802901C
:100F40000298496D60F30701A7484165406920F4A4
:100F5000FF014FF4FF02029802EAC0100143A248C9
:100F6000416100BF4FF080509F49C86300BF4FF000
:100F700080509D4988630015886500BF00BF072029
:100F8000059000200690059804904815C865C00497
:100F9000C8638000886304980390039802900298C5
:100FA000496D60F3070190484165406920F4FF01F5
:100FB0004FF4FF02029802EAC01001438A484161DF
:100FC00000BF4FF080508849C86300BF4FF0805089
:100FD000854988630015886500BF06980490481508
:100FE000C865C0048863049803900398029002982F
:100FF000496D60F307017C484165406920F4FF01B9
:101000004FF4FF02029802EAC010014376484161A2
:1010100000BF4FF080507449C86300BF4FF080504C
:10102000714988630015886500BF00BF08200590DE
:1010300001200690059804904815C865C004C8634F
:101040008000886304980390039802900298496D89
:1010500060F3070164484165406920F4FF014FF4E3
:10106000FF02029802EAC01001435F48416100BFDD
:101070004FF080505C49C86300BF4FF080505A4920
:1010800088630015886500BF069804904815C865F8
:10109000C004886304980390039802900298496DF5
:1010A00060F3070150484165406920F4FF014FF4A7
:1010B000FF02029802EAC01001434B48416100BFA1
:1010C0004FF080504849C86300BF4FF080504649F8
:1010D00088630015886500BF00BF092005903F2088
:1010E0000690059804904815C865C004C863800040
:1010F000886304980390039802900298496D60F306
:10110000070139484165406920F4FF014FF4FF02AF
:10111000029802EAC01001433348416100BF4FF01A
:1011200080503149C86300BF4FF080502E4988631A
:101130000015886500BF069804904815C865C0046E
:10114000886304980390039802900298496D60F3B5
:10115000070125484165406920F4FF014FF4FF0273
:10116000029802EAC01001431F48416100BF4FF0DE
:1011700080501D49C86300BF4FF080501A498863F2
:101180000015886500BF00BF2FE200200590069083
:101190001648007809287CD02020039005980490F8
:1011A000039802904FF480700F49C865C1040E483F
:1011B000C16388000C4988630298019001980090EF
:1011C0000098496D60F3070107484165406920F4C4
:1011D000FF014FF4FF02009802EAC01001430248E9
:1011E000416100BF04E0000000C0092004000010BD
:1011F0004FF08050FE49C86300BF4FF08050FC495B
:1012000088630015886500BF049802904815C8657A
:10121000C004886302980190019800900098496D7D
:1012200060F30701F2484165406920F4FF014FF483
:10123000FF02009802EAC0100143ED48416100BF7F
:101240004FF08050EA49C86300BF4FF08050E84932
:1012500088630015886500BF00BF212003900698B1
:101260000490039802904815C865C104E048C16322
:10127000890081630298019001980090DC490098F0
:10128000496D60F30701DA484165406920F4FF01C8
:1012900000E03EE04FF4FF02009802EAC010014374
:1012A000D348416100BF4FF08050D149C86300BFAF
:1012B0004FF08051CE4881634115816500BF04988D
:1012C00002900846CA49C865C00488630298019024
:1012D000019800900098496D60F30701C44841658A
:1012E000406920F4FF014FF4FF02009802EAC010A9
:1012F0000143BF48416100BF4FF08051C16300BF4F
:101300004FF08050BA4988630015886500BF00BF60
:1013100068E102200390059800120490039802905F
:101320004FF48070B249C865C004C8638100B048FA
:1013300081630298019001980090AD490098496D31
:1013400060F30701AA484165406920F4FF014FF4AA
:10135000FF02009802EAC0100143A548416100BFA6
:101360004FF08050A249C86300BF4FF08051A048A1
:1013700081634115816500BF0498029008469C492D
:10138000C865C00488630298019001980090009895
:10139000496D60F3070196484165406920F4FF01FB
:1013A0004FF4FF02009802EAC010014390484161E7
:1013B00000BF4FF080508E49C86300BF4FF080508F
:1013C0008B4988630015886500BF00BF0320039028
:1013D00005980490039802904815C865C004C86336
:1013E0008000886302980190019800900098496DF0
:1013F00060F307017E484165406920F4FF014FF426
:10140000FF02009802EAC01001437948416100BF21
:101410004FF080507649C86300BF4FF08050744948
:1014200088630015886500BF049802904815C86558
:10143000C1046F48816302980190019800906C4943
:101440000098496D60F3070169484165406920F4DF
:10145000FF014FF4FF02009802EAC0100143644804
:10146000416100BF4FF080506149C86300BF4FF039
:1014700080515F48816340155D49886500BF00BFAA
:1014800006200390069800120490039802904815D5
:10149000C865C004C8638100554881630298019003
:1014A0000198009052490098496D60F30701504837
:1014B0004165406920F4FF014FF4FF02009802EA01
:1014C000C01001434A48416100BF4FF08050484975
:1014D000C86300BF4FF08050454988630015886598
:1014E00000BF049802904815C865C004886302983C
:1014F0000190019800900098496D60F307013C4805
:101500004165406920F4FF014FF4FF02009802EAB0
:10151000C01001433648416100BF4FF0805034494C
:10152000C86300BF4FF0805031498863001588655B
:1015300000BF00BF07200390069804900398029014
:101540004815C865C004C86380008863029801908C
:10155000019800900098496D60F3070124484165A7
:10156000406920F4FF014FF4FF02009802EAC01026
:1015700001431F48416100BF4FF080501C49C863C0
:1015800000BF4FF080501A4988630015886500BF7E
:10159000049802904815C865C004886302980190B9
:1015A000019800900098496D60F30701104841656B
:1015B000406920F4FF014FF4FF02009802EAC010D6
:1015C00001430B48416100BF4FF080500849C86398
:1015D00000BF4FF08050064988630015886500BF42
:1015E00000BF00BF00BF00BF00BF2220069001E087
:1015F00000C009204FF48070FE49C865C004C8636C
:101600008000886306980590059804900498496DB9
:1016100060F30701F7484165406920F4FF014FF48A
:10162000FF02049802EAC0100143F248416100BF82
:101630004FF08050EF49C86300BF4FF08050ED4934
:1016400088630015886500BF002007902CE008988B
:1016500006904FF48070E749C865C0048863069817
:101660000590059804900498496D60F30701E148DE
:101670004165406920F4FF014FF4FF02049802EA3B
:10168000C0100143DB48416100BF4FF08050D94991
:10169000C86300BF4FF08050D64988630015886545
:1016A00000BF0798401C07900798B0F5963FCED32F
:1016B00009B000BD2DE9F04103460C46F02B02DADB
:1016C000B4F5A07F01DBBDE8F08118462146CA4D84
:1016D0002D78092D7ED0202500BFEE00C54FFE6578
:1016E000AE05FE632E06BE6300BF2E467F6D66F319
:1016F0000707DFF800C3CCF8547067467F6927F40A
:10170000FF074FF4FF0C0CEAC61C47EA0C07DFF892
:10171000E4C2CCF8147000BFEE056746FE6300BF5C
:101720004FF08056B34FBE633615BE6500BF00BF95
:10173000FE65F604BE6300BF06467F6D66F30707CD
:10174000DFF8B0C2CCF8547067467F6927F4FF0712
:101750004FF4FF0C0CEAC61C47EA0C07DFF894C2F2
:10176000CCF8147000BF4FF080566746FE6300BF90
:101770004FF080569F4FBE633615BE6500BF00BF59
:10178000212500BFFE65EE06FE636E07BE6300BF47
:101790002E467F6D66F30707DFF858C2CCF8547009
:1017A00067467F6927F4FF074FF4FF0C0CEAC61C5D
:1017B00047EA0C07DFF83CC2CCF8147000BF2E07D4
:1017C0006746FE6300BF4FF080568A4FBE633615F2
:1017D000BE6500E02AE000BF00BFFE65F604BE6300
:1017E00000BF0E467F6D66F30707DFF808C2CCF82E
:1017F000547067467F6927F4FF074FF4FF0C0CEA2B
:10180000C61C47EA0C07DFF8ECC1CCF8147000BF27
:101810004FF080566746FE6300BF4FF08056754F0D
:10182000BE633615BE6500BF00BF7EE1022605120D
:1018300000BFF701DFF8BCC1CCF85C70B706CCF88C
:101840003C703707CCF8387000BF3746DCF854C01E
:1018500067F3070CDFF89C81C8F854C0C446DCF875
:1018600014C02CF4FF0C4FF4FF0808EAC7184CEA28
:10187000080CDFF88081C8F814C000BFF706C44622
:10188000CCF83C7000BF4FF08057DFF868C1CCF84F
:1018900038703F15CCF8587000BF00BFCCF85C70B2
:1018A000FF04CCF8387000BF2F46DCF854C067F353
:1018B000070CDFF84081C8F854C0C446DCF814C0F7
:1018C0002CF4FF0C4FF4FF0808EAC7184CEA080C88
:1018D000DFF82081C8F814C000BF4FF08057C4461D
:1018E000CCF83C7000BF4FF08057DFF808C1CCF84F
:1018F00038703F15CCF8587000BF00BF032500BFFB
:101900003E466746FE65F604FE63B600BE6300BF52
:101910002E467F6D66F30707CCF8547067467F69E3
:1019200027F4FF074FF4FF0C0CEAC61C47EA0C072C
:10193000DFF8C0C0CCF8147000BF4FF08056674687
:10194000FE6300BF4FF080562A4FBE633615BE655A
:1019500000BF00BFFE65F604BE6300BF06467F6D94
:1019600066F30707DFF88CC0CCF8547067467F69D0
:1019700027F4FF074FF4FF0C0CEAC61C47EA0C07DC
:10198000DFF870C0CCF8147000BF4FF08056674687
:10199000FE6300BF4FF08056164FBE633615BE651E
:1019A00000BF00BF06260D1200BF7F15DFF844C040
:1019B000CCF85C70FF04CCF83C70BF00CCF83870F9
:1019C00000BF3746DCF854C067F3070CDFF824800B
:1019D000C8F854C0C446DCF814C02CF4FF0C4FF413
:1019E000FF0808EAC7184CEA080CDFF80880C8F8B6
:1019F00014C003E000C009200400001000BF4FF035
:101A00008057C446CCF83C7000BF4FF08057DFF8D9
:101A100068C3CCF838703F15CCF8587000BF00BFD1
:101A2000CCF85C70FF04CCF8387000BF2F46DCF8AF
:101A300054C067F3070CDFF84083C8F854C0C446AD
:101A4000DCF814C02CF4FF0C4FF4FF0808EAC718A8
:101A50004CEA080CDFF82083C8F814C000BF4FF030
:101A60008057C446CCF83C7000BF4FF08057DFF879
:101A700008C3CCF838703F15CCF8587000BF00BFD1
:101A8000072500BF3E466746FE65F604FE63B600C6
:101A9000BE6300BF2E467F6D66F30707CCF8547017
:101AA00067467F6927F4FF074FF4FF0C0CEAC61C5A
:101AB00047EA0C07DFF8C0C2CCF8147000BF4FF043
:101AC00080566746FE6300BF4FF08056AA4FBE6344
:101AD0003615BE6500BF00BFFE65F604BE6300BFDD
:101AE0000E467F6D66F30707DFF88CC2CCF85470A2
:101AF00067467F6927F4FF074FF4FF0C0CEAC61C0A
:101B000047EA0C07DFF870C2CCF8147000BF4FF042
:101B100080566746FE6300BF4FF08056964FBE6307
:101B20003615BE6500BF00BF00BF00BF00BF22204A
:101B300000BF4FF48071904DE965C904E963010766
:101B4000A96300BF01466D6D61F307058A4E756597
:101B500035466D6925F4FF054FF4FF0606EAC11608
:101B60003543854E756100BFC1063546E96300BF48
:101B70004FF08051804DA9630915A96500BF00BFD2
:101B8000E965C904A96300BF11466D6D61F30705DE
:101B9000794E756535466D6925F4FF054FF4FF06EE
:101BA00006EAC1163543744E756100BF4FF080518F
:101BB0003546E96300BF4FF080516F4DA9630915A9
:101BC000A96500BF00BF00BF7DE52DE9F04F0446C9
:101BD0000D4691469A46DDF824B04C4503DD0FFAD8
:101BE00089F7A146BCB2554503DD0FFA8AF7AA462C
:101BF000BDB2A9EB04000FFA80F8AAEB050006B20B
:101C0000B8F1000F0BD100BF5A4629462046FFF716
:101C100051FD681C85B2AA45F6DABDE8F08F56B9C9
:101C200000BF5A4629462046FFF744FD601C84B297
:101C3000A145F6DAF1E7B04521DDC8EB460007B271
:101C400015E05A4629462046FFF734FD601C84B251
:101C5000002F08DD681C85B27000022101FB18000E
:101C6000384407B203E0022000FB067007B24C457F
:101C7000E7D15A4629462046FFF71CFD20E0C6EB77
:101C8000480007B215E05A4629462046FFF712FDE4
:101C9000681C85B2002F08DD601C84B27000022130
:101CA00001FB1800384407B203E0022000FB067075
:101CB00007B25545E7D15A4629462046FFF7FAFCB8
:101CC00000BFAAE72DE9FF5F06460F4690469946FA
:101CD000DDF838B041466846FEF7B4FA00241FE04C
:101CE0001DF804A0002517E0C5F107004AFA00F02E
:101CF00000F0010038B13A1991B2721990B24A4617
:101D0000FFF7D8FC06E03A1991B2721990B25A4620
:101D1000FFF7D0FC681C85B2082DE5DB601C84B29F
:101D2000102CDDDBBDE8FF9F2DE9F84305460E468C
:101D300014469846DDF8209000BF14F8017B434616
:101D40003A4631462846CDF80090FFF7BBFFE82D14
:101D500003DA05F1080085B209E0B6F5987F04DAE8
:101D6000002506F1100086B201E00025002620784B
:101D70000028E2D1BDE8F88300C00920FE480068D1
:101D800020F47F20FC4908600846006840F42820C1
:101D900008600846006920F040600861F748006C60
:101DA00020F40050F54908644FF400508865084657
:101DB000006840F0400008604020886141F607005C
:101DC000EF49086002204860704710B5002107E025
:101DD0000C2200BF131EA2F10104E2B2FAD1491C89
:101DE0008142F5D310BD014600BFE548C06800F050
:101DF00010000028F9D1E248816000BFE048C068C7
:101E000000F004000028F9D0DD488068C0B27047B7
:101E100070B50020FFF7E7FF05464FF6FF7000EAB8
:101E200005240120FFF7D1FF0020FFF7DCFF054666
:101E30002C43E410C4F30B04204670BD10B54020C1
:101E4000CE49C8610120FFF7C0FF9020FFF7CBFF0C
:101E50000120FFF7BAFFFFF7DBFF04464020C74928
:101E60008861204610BD10B54020C449C8610120DA
:101E7000FFF7ABFFD020FFF7B6FF0120FFF7A5FF6C
:101E8000FFF7C6FF04464020BC498861204610BDCC
:101E90002DE9F04104460D46FFF7D0FF064601202C
:101EA000FFF793FFFFF7DFFF074626602F60BDE8CF
:101EB000F08170B504460D464FF47842294620461D
:101EC000FFF7F8FB611C88B24FF478422946FFF710
:101ED000F1FB681C81B24FF478422046FFF7EAFB21
:101EE0006A1C91B2621C90B24FF47842FFF7E2FB99
:101EF00070BDF8B504460D464FF6FF70A11E8AB2BC
:101F00000D39009088B22B462946FFF75EFE4FF64A
:101F1000FF7004F10F018AB2A11C009088B22B4619
:101F20002946FFF752FE4FF6FF700090A81E83B2BD
:101F30000D3881B222462046FFF747FE4FF6FF706C
:101F4000009005F10F0083B2A81C81B22246204602
:101F5000FFF73BFE4BF6F04005F10F06B3B2E61F6C
:101F6000B2B205F10F06B1B2A4F10F060090B0B203
:101F7000FFF72BFE4BF6F04005F10F06B3B2A4F1CC
:101F80000F06B2B2EE1DB1B2A4F10F060090B0B2CE
:101F9000FFF71BFE4BF6F040A5F10F06B3B2E61FAC
:101FA000B2B2A5F10F06B1B2A4F10F060090B0B223
:101FB000FFF70BFE4BF6F040A5F10F06B3B2A4F10C
:101FC0000F06B2B2EE1FB1B2A4F10F060090B0B28C
:101FD000FFF7FBFD4BF6F04005F10F06B3B204F13D
:101FE0000F06B2B205F10F06B1B2E61D0090B0B215
:101FF000FFF7EBFD4BF6F04005F10F06B3B204F12D
:102000000F06B2B2EE1DB1B204F10F060090B0B2ED
:10201000FFF7DBFD4BF6F040A5F10F06B3B204F17C
:102020000F06B2B2A5F10F06B1B2E61D0090B0B234
:10203000FFF7CBFD4BF6F040EE1FB3B204F10F06F5
:10204000B2B2A5F10F06B1B204F10F060090B0B222
:10205000FFF7BBFDF8BDF0B597B0002748216846F3
:1020600005F0DAFC00BF15A916A8FFF711FF1698B6
:102070004DF8270009A8159940F82710781CC7B219
:102080003E48406D00F4005008B9092FEBDB092FE2
:102090007AD1DDE90001084402990844032190FB4C
:1020A000F1F01290DDE90301084405990844032189
:1020B00090FBF1F01390DDE906010844089908440B
:1020C000032190FBF1F01490DDE91201441ADDE9DF
:1020D0001301451A12991498461A002C01DD204666
:1020E00000E060420446002D01DD284600E0684221
:1020F0000546002E01DD304600E070420646322CD7
:1021000006DD322D04DD322E02DD002017B0F0BDD9
:10211000AC4215DAA64209DA149A1299881800EB33
:10212000D071C1F34F01174A11801EE0DDE9121290
:10213000881800EBD071C1F34F01124A118014E0EE
:10214000AE4209DA149A1299881800EBD071C1F3E3
:102150004F010C4A118008E0DDE91312881800EBEA
:10216000D071C1F34F01074A1180DDE90910014424
:102170000B980844032108E000C0024000C0092079
:10218000000003405000001066E090FBF1F0129058
:10219000DDE90C1001440E980844032190FBF1F096
:1021A0001390DDE90F10014411980844032190FBBE
:1021B000F1F01490DDE91201441ADDE91301451A2A
:1021C00012991498461A002C01DD204600E0604266
:1021D0000446002D01DD284600E068420546002E39
:1021E00001DD304600E070420646322C05DD322D1E
:1021F00003DD322E01DD002088E7AC4215DAA6426D
:1022000009DA149A1299881800EBD071C1F34F01C2
:10221000C24A51801EE0DDE91212881800EBD0712D
:10222000C1F34F01BD4A518014E0AE4209DA149A5D
:102230001299881800EBD071C1F34F01B74A518051
:1022400008E0DDE91312881800EBD071C1F34F01EB
:10225000B24A5180B14859E7002057E72DE9F047CD
:1022600005460C4616464FF0000921882289891A36
:10227000E38862899A1A5143A2882389D31A67880E
:102280006289BA1A03FB121009F0ABFEC6E90C0111
:1022900000221346D6E90C71384609F039FE02D106
:1022A0004FF0010989E029882A89891AE38862891F
:1022B0009A1A5143AA882B89D31A67886289BA1A55
:1022C00003FB121009F08DFEC6E900012188228966
:1022D000891AAA882B89D21A51432A88D21AA3882C
:1022E0002789DB1B02FB131009F07BFEC6E9020104
:1022F0002189AA885143A2882B8902FB1311628885
:10230000514322885A4323892F8803FB1723E288ED
:1023100003FB0212A18879432388AF8803FB1713BC
:10232000618903FB012009F05CFEC6E904016A88AB
:102330006989511AE38862899A1A5143EB886A893C
:102340009B1A67886289BA1A03FB121009F049FECA
:10235000C6E9060121882289891AEB886A899A1AB6
:1023600051436B886A899A1AA3882789DB1B02FB71
:10237000131009F036FEC6E908012189EA885143A5
:10238000A3886A8903FB12116288514322886B89F2
:102390005A4323896F8803FB1723E28803FB021348
:1023A000A18879432788EA8807FB1212618902FB1A
:1023B000013009F016FEC6E90A014846BDE8F0877B
:1023C0002DE9F04F8BB08246894614464FF0000B42
:1023D00000221346D4E90C51284609F099FD60D03B
:1023E000B9F8020009F014FE0546D4E902733A4632
:1023F00009F022FECDE90201B9F8000009F008FE5B
:102400000746D4E900532A4609F016FECDE900013B
:10241000DDE9022309F070FBCDE90401D4E904539E
:102420002A4609F069FBCDE90601D4E90C532A4696
:1024300009F016FCCDE9080109F0A6FDAAF8000094
:10244000B9F8020009F0E4FD0746D4E908532A462A
:1024500009F0F2FDCDE90201B9F8000009F0D8FD5C
:102460000746D4E906532A4609F0E6FDCDE9000106
:10247000DDE9022309F040FBCDE90401D4E90A5368
:102480002A4609F039FBCDE90601D4E90C532A4666
:1024900009F0E6FBCDE9080109F076FDAAF8020093
:1024A00001E04FF0010B58460BB0BDE8F08F38B596
:1024B000002427E00020FEF7A0FB00204FF6FF736A
:1024C00017A20A2100900846FFF72EFC1C48FFF7D0
:1024D0007CFC1C4A02EB840251881A4A32F8240020
:1024E000FFF707FD00BFFFF7B6FD0546002DFAD048
:1024F0002888154921F82400688801EB8401488068
:10250000601CC4B2032CD5DB104A0F490D48FFF7FD
:10251000A5FE0020FEF771FB38BD00005000001042
:10252000546F7563682063726F737368616972209A
:10253000746F2063616C69627261746500000000F1
:1025400020A10700440000106803001008000010DC
:102550002DE9F84F04460E4617461D460095B4F87F
:1025600000C0B4F80480C4441FFA8CF26388194692
:102570002088FFF72AFB0095B4F802C0B4F8068063
:10258000C4441FFA8CF3228861881046FFF71DFBB4
:102590000095B4F802C0B4F80680C4441FFA8CF366
:1025A000B4F800C0B4F80480C4441FFA8CF2B4F844
:1025B00002C0B4F80680C4441FFA8CF12088FFF7EB
:1025C00004FB0095B4F802C0B4F80680C4441FFAB6
:1025D0008CF3B4F800C0B4F80480C4441FFA8CF241
:1025E000B4F800C0C4441FFA8CF06188FFF7EDFA1C
:1025F000304605F0ADF94008B4F8049009EBD97104
:10260000228802EB6101A1EBC0001FFA80FA0020D2
:102610000090B4F8068008EBD870628802EB600086
:10262000083881B23B4632465046FFF77DFBBDE895
:10263000F88F2DE9F84304460D460095E68806EB31
:10264000D67CB4F8028008EB6C0CACF1010C1FFADC
:102650008CF3B4F800C0B4F80480C444ACF1050CA9
:102660001FFA8CF2374606EBD77CB4F8028008EBF1
:102670006C0CACF1010C1FFA8CF1B4F800C00CF139
:10268000050C1FFA8CF0FFF7A0FA0095E68806EB20
:10269000D67CB4F8028008EB6C0C1FFA8CF3B4F80B
:1026A00000C0B4F80480C444ACF1050C1FFA8CF2ED
:1026B000374606EBD77CB4F8028008EB6C0C1FFAA7
:1026C0008CF1B4F800C00CF1050C1FFA8CF0FFF788
:1026D0007CFA0095E68806EBD67CB4F8028008EB1D
:1026E0006C0C0CF1010C1FFA8CF3B4F800C0B4F8B8
:1026F0000480C444ACF1050C1FFA8CF2374606EB9B
:10270000D77CB4F8028008EB6C0C0CF1010C1FFABA
:102710008CF1B4F800C00CF1050C1FFA8CF0FFF737
:1027200054FABDE8F8832DE9F84304460D462946DE
:102730002046FFF77EFF0095B4F802C0B4F806808B
:10274000C444ACF1050C1FFA8CF3A68806EBD67CCA
:10275000B4F8008008EB6C0CACF1010C1FFA8CF2A1
:10276000374606EBD77C08EB6C0CACF1010C1FFA7A
:102770008CF0B4F802C00CF1050C1FFA8CF1FFF7D5
:1027800024FA0095B4F802C0B4F80680C444ACF151
:10279000050C1FFA8CF3A78807EBD77CB4F80080F0
:1027A00008EB6C0C1FFA8CF23E4607EBD67C08EB6C
:1027B0006C0C1FFA8CF0B4F802C00CF1050C1FFA77
:1027C0008CF1FFF702FA0095B4F802C0B4F8068065
:1027D000C444ACF1050C1FFA8CF3A68806EBD67C3A
:1027E000B4F8008008EB6C0C0CF1010C1FFA8CF2B1
:1027F000374606EBD77C08EB6C0C0CF1010C1FFA8A
:102800008CF0B4F802C00CF1050C1FFA8CF1FFF744
:10281000DCF9BDE8F88310B51F234FF6FF72F8A16D
:10282000FC48FFF795FE1F234FF6FF72FAA1FE4802
:10283000FFF78EFE1F234FF6FF72FCA1FD48FFF746
:1028400087FE1F234FF6FF72FBA1FE48FFF780FEB5
:102850001F234FF6FF72FCA1FE48FFF779FE10BD63
:10286000F8B51F234FF6FF72FBA1EA48FFF770FE91
:102870001F234FF6FF72FBA1FC48FFF769FE1F23E1
:102880004FF6FF72FAA1FD48FFF762FE1F234FF6D5
:10289000FF72FBA1FC48FFF75BFE1F234FF6FF72A0
:1028A000FAA1FE48FFF754FE1F234FF6FF72F4A172
:1028B000FB48FFF74DFE1F234FF6FF72F9A1FC48BE
:1028C000FFF746FE1F234FF6FF72EDA1F948FFF711
:1028D0003FFE1F234FF6FF72F7A1FA48FFF738FEBD
:1028E0001F234FF6FF72E6A1F748FFF731FE1F23C3
:1028F0004FF6FF72F5A1F948FFF72AFE1F234FF6A6
:10290000FF72DFA1F648FFF723FE1F234FF6FF7289
:10291000F4A1F848FFF71CFE1F234FF6FF72D8A161
:10292000F548FFF715FE1F234FF6FF72F3A1F84895
:10293000FFF70EFE1F234FF6FF72D1A1F548FFF7F8
:1029400007FEF54890F90020F4A1F548FDF7B2FC28
:10295000F44890F90020F1A1F348FDF7ABFCF348EF
:1029600090F90020EDA1F248FDF7A4FCF148EBA19D
:102970000268F148FDF79EFCF048E8A10268F048C3
:10298000FDF798FCEF48E5A10268EF48FDF792FCDF
:10299000EA480068EB49096808444008EB490860C8
:1029A0000846DEA10268EA48FDF784FCDC4804F032
:1029B000CFFF4008B4498D8805EBD571B24A128823
:1029C00002EB6101A1EBC00086B200200090AE488E
:1029D000C48804EBD470AC4A528802EB600008381B
:1029E00081B24FF6FF73CE4A3046FFF79DF9CE48CD
:1029F00004F0AEFF4008AA498D8805EBD571A84ABE
:102A0000128802EB6101A1EBC00086B200200090A9
:102A1000A348C48804EBD470A14A528802EB60003A
:102A2000083881B24FF6FF73BF4A3046FFF77CF992
:102A3000BF4804F08DFF40089E498D8805EBD57195
:102A40009C4A128802EB6101A1EBC00086B2002013
:102A500000909848C48804EBD470964A528802EBE0
:102A60006000083881B24FF6FF73B14A3046FFF775
:102A70005BF9B14804F06CFF400893498D8805EB81
:102A8000D571914A128802EB6101A1EBC00086B2B8
:102A9000002000908C48C48804EBD4708A4A528885
:102AA00002EB6000083881B24FF6FF73A24A30464D
:102AB000FFF73AF9A24804F04BFF400888498D8897
:102AC00005EBD571864A128802EB6101A1EBC000CB
:102AD00086B2002000908248C48804EBD470804AFB
:102AE000528802EB6000083881B24FF6FF73944AB7
:102AF0003046FFF719F9944804F02AFF40087E4950
:102B00008D8805EBD5717C4A128802EB6101A1EB3F
:102B1000C00086B2002000907748C48804EBD470CF
:102B2000754A528802EB6000083881B24FF6FF7395
:102B3000854A3046FFF7F8F8854804F009FF400859
:102B400074498D8805EBD571724A128802EB6101D8
:102B5000A1EBC00086B2002000906E48C48804EB50
:102B6000D4706C4A528802EB6000083881B24FF68C
:102B7000FF73774A3046FFF7D7F8F8BDF8B51F2343
:102B80004FF6FF7273A12348FFF7E2FC1F234FF6B5
:102B9000FF7234A13548FFF7DBFC1F234FF6FF72AD
:102BA00033A13648FFF7D4FC1F234FF6FF7234A140
:102BB0003548FFF7CDFC1F234FF6FF7233A137488E
:102BC000FFF7C6FC1F234FF6FF722DA13448FFF715
:102BD000BFFC1F234FF6FF7232A13548FFF7B8FC48
:102BE0001F234FF6FF7226A13248FFF7B1FC1F23C7
:102BF0004FF6FF7230A13348FFF7AAFC1F23B1E064
:102C00004249454E56454E49444F20555355415231
:102C1000494F00008A000010456C69676120656CAF
:102C2000206D6F646F3A0000940000104D616E7566
:102C3000616C00009E0000104175746F6D617469D5
:102C4000636F0000A80000104465707572616369CD
:102C50006F6E0000B20000104D4F444F204D414EAA
:102C600055414C004461746F733A0000BC00001081
:102C700056656C204465726563686100C60000108B
:102C80002020202020000000D000001056656C207D
:102C9000497A71756965726461000000DA0000109C
:102CA000E4000010506F732E20536572766F0000A1
:102CB000EE000010F800001044697374616E6369DF
:102CC00061000000020100100C010010496E7465E3
:102CD0006E7369646164204C757A310016010010CE
:102CE00020010010496E74656E7369646164204C44
:102CF000757A32002A0100103401001050726F6D95
:102D00002E20496E74656E73696461640000000072
:102D10003E01001048010010390200102532640005
:102D2000740300103A0200108D0300103B020010E3
:102D3000A603001078020010BF030010540000101A
:102D4000D803001058000010F10300105C000010C0
:102D50000A0400104D4F444F204155544F4D4154EB
:102D600049434F004FF6FF72AFF2EC01FE48FFF708
:102D7000EFFB1F234FF6FF72AFF2B001FB48FFF7E6
:102D8000E7FB1F234FF6FF72AFF20C11F848FFF775
:102D9000DFFB1F234FF6FF72AFF2B801F548FFF7D4
:102DA000D7FB1F234FF6FF72AFF22C11F248FFF74B
:102DB000CFFB1F234FF6FF72AFF2C001EF48FFF7C2
:102DC000C7FB1F234FF6FF72AFF24C11EC48FFF721
:102DD000BFFBEC4890F90020AFF2C001EA48FDF7D4
:102DE00069FAEA4890F90020AFF2D001E848FDF70F
:102DF00061FAE84890F90020AFF2E001E648FDF7FB
:102E000059FAE648AFF2EC010268E548FDF752FADC
:102E1000E448AFF2F8010268E348FDF74BFAE348F3
:102E2000AFF208110268E248FDF744FADD48006895
:102E3000DE49096808444008DE4908600846AFF2E8
:102E400024110268DC48FDF735FACF4804F080FD14
:102E50004008DA498D8805EBD571D84A128802EB13
:102E60006101A1EBC00086B200200090D348C48865
:102E700004EBD470D14A528802EB6000083881B26A
:102E80004FF6FF73C04A3046FEF74EFFC04804F0CD
:102E90005FFD4008CA498D8805EBD571C84A128884
:102EA00002EB6101A1EBC00086B200200090C44893
:102EB000C48804EBD470C24A528802EB6000083820
:102EC00081B24FF6FF73B24A3046FEF72DFFB2488B
:102ED00004F03EFD4008BB498D8805EBD571B94A29
:102EE000128802EB6101A1EBC00086B200200090C5
:102EF000B448C48804EBD470B24A528802EB600034
:102F0000083881B24FF6FF73A34A3046FEF70CFF34
:102F1000A34804F01DFD400893498D8805EBD57149
:102F2000914A128802EB6101A1EBC00086B2002039
:102F300000908D48C48804EBD4708B4A528802EB11
:102F40006000083881B24FF6FF73954A3046FEF7AD
:102F5000EBFE954804F0FCFC400885498D8805EBA4
:102F6000D571834A128802EB6101A1EBC00086B2E1
:102F7000002000907E48C48804EBD4707C4A5288BC
:102F800002EB6000083881B24FF6FF73864A304684
:102F9000FEF7CAFE864804F0DBFC400876498D88BF
:102FA00005EBD571744A128802EB6101A1EBC000F8
:102FB00086B2002000907048C48804EBD4706E4A3A
:102FC000528802EB6000083881B24FF6FF73784AEE
:102FD0003046FEF7A9FE784804F0BAFC400868497C
:102FE0008D8805EBD571664A128802EB6101A1EB71
:102FF000C00086B2002000906148C48804EBD47001
:103000005F4A528802EB6000083881B24FF6FF73C6
:10301000694A3046FEF788FEF8BDF8B51F234FF623
:10302000FF7269A16C48FFF793FA1F234FF6FF72F6
:103030006AA16D48FFF78CFA1F234FF6FF72AFF2BB
:10304000C0316A48FFF784FA1F234FF6FF7268A168
:103050006A48FFF77DFA1F234FF6FF72AFF2E031A7
:103060006748FFF775FA1F234FF6FF7265A168489E
:10307000FFF76EFA1F234FF6FF72AFF2FC3165487F
:10308000FFF766FA1F234FF6FF7263A16548FFF74B
:103090005FFA1F234FF6FF72AFF21C416248FFF741
:1030A00057FA1F234FF6FF72AFF2F4315F48FFF774
:1030B0004FFA1F234FF6FF72AFF23C415C48FFF717
:1030C00047FA1F234FF6FF72AFF200415948FFF74E
:1030D0003FFA1F234FF6FF72AFF25C415648FFF7ED
:1030E00037FA1F234FF6FF72AFF208415348FFF73C
:1030F0002FFA1F234FF6FF72AFF27C415048FFF7C3
:1031000027FA1F234FF6FF724EA15248FFF720FA0D
:103110001F234FF6FF72AFF298414F48FFF718FA9E
:103120001F234FF6FF72AFF2A8414C48FFF710FA89
:103130004FF6FF714A48FFF7F6FA4FF6FF7149481C
:10314000FFF7F1FA4FF6FF714748FFF7ECFA4FF639
:10315000FF714648FFF76DFA4FF6FF714448FFF7DD
:1031600068FA4FF6FF7185E00C010010160100109F
:10317000200100102A010010340100103E0100104F
:103180004801001039020010740300103A020010C8
:103190008D0300103B020010A603001078020010FF
:1031A000BF03001054000010D80300105800001096
:1031B000F10300105C0000100A040010D0000010A1
:1031C000E4000010F80000104D4F444F20444550DB
:1031D00055524143494F4E008A0000104469722EF7
:1031E0002049503A000000001A020010240200108A
:1031F000562E44657265636861000000520100103C
:103200005C010010562E497A717569657264000080
:103210007A01001084010010506F732E536572768E
:103220006F000000A2010010AC010010CA010010E4
:10323000D4010010DE010010E8010010F2010010BE
:10324000FC01001050726F6D6564696F20496E74E7
:103250002E00000006020010100200102E020010C6
:10326000660100108E010010B60100107001001000
:1032700098010010FE48FFF7DCF9FE4890F90020A5
:10328000AFF26851FC48FDF715F8FC4890F90020B2
:10329000AFF27851FA48FDF70DF8FA4890F900209E
:1032A000AFF28851F848FDF705F8F848AFF29451AD
:1032B0000268F748FCF7FEFFF648AFF2A05102683B
:1032C000F548FCF7F7FFF548AFF2B0510268F44853
:1032D000FCF7F0FFEF480068F0490968084440082F
:1032E000F04908600846AFF2CC510268EE48FCF79E
:1032F000E1FFE14804F02CFB4008EC498D8805EB28
:10330000D571EA4A128802EB6101A1EBC00086B2D6
:1033100000200090E548C48804EBD470E34A52884A
:1033200002EB6000083881B24FF6FF73D24A304694
:10333000FEF7FAFCD24804F00BFB4008DC498D880C
:1033400005EBD571DA4A128802EB6101A1EBC000EE
:1033500086B200200090D648C48804EBD470D44ACA
:10336000528802EB6000083881B24FF6FF73C44AFE
:103370003046FEF7D9FCC44804F0EAFA4008CD49CB
:103380008D8805EBD571CB4A128802EB6101A1EB68
:10339000C00086B200200090C648C48804EBD470F8
:1033A000C44A528802EB6000083881B24FF6FF73BE
:1033B000B54A3046FEF7B8FCB54804F0C9FA4008F3
:1033C000BD498D8805EBD571BB4A128802EB6101BE
:1033D000A1EBC00086B200200090B748C48804EB7F
:1033E000D470B54A528802EB6000083881B24FF6BB
:1033F000FF73A74A3046FEF797FCA74804F0A8FAE7
:103400004008AE498D8805EBD571AC4A128802EBB5
:103410006101A1EBC00086B200200090A748C488DB
:1034200004EBD470A54A528802EB6000083881B2E0
:103430004FF6FF73984A3046FEF776FC984804F042
:1034400087FA40089E498D8805EBD5719C4A128801
:1034500002EB6101A1EBC00086B200200090984809
:10346000C48804EBD470964A528802EB6000083896
:1034700081B24FF6FF738A4A3046FEF755FC8A4800
:1034800004F066FA40088F498D8805EBD5718D4AA6
:10349000128802EB6101A1EBC00086B2002000900F
:1034A0008848C48804EBD470864A528802EB6000D6
:1034B000083881B24FF6FF737B4A3046FEF734FC82
:1034C000F8BDF8B51F234FF6FF72AFF204317E4806
:1034D000FFF73EF81F234FF6FF72AFF200317B4833
:1034E000FFF736F81F234FF6FF72AFF66C017848EE
:1034F000FFF72EF81F234FF6FF7276A17748FFF7EC
:1035000027F81F234FF6FF72AFF68C017448FFF7C0
:103510001FF81F234FF6FF7272A17448FFF718F8C7
:103520001F234FF6FF72AFF6A8017148FFF710F89E
:103530001F234FF6FF726FA17248FFF709F81F2390
:103540004FF6FF72AFF6C8016F48FFF701F81F236F
:103550004FF6FF726DA17148FEF7FAFF1F234FF679
:10356000FF72AFF6E4016E48FEF7F2FF1F234FF63D
:10357000FF726CA16F48FEF7EBFF1F234FF6FF723F
:10358000AFF604116C48FEF7E3FF1F234FF6FF72FE
:103590006AA16C48FEF7DCFF1F234FF6FF72AFF6FF
:1035A00020116948FEF7D4FF1F234FF6FF7267A171
:1035B0006848FEF7CDFF1F234FF6FF72AFF64011AC
:1035C0006548FEF7C5FF654890F9002064A12A48C8
:1035D000FCF770FE634890F9002061A12848FCF7D1
:1035E00069FE614890F900205DA12748FCF762FE62
:1035F0005E4890F900205AA12548FCF75BFE5C4824
:1036000090F9002056A12448FCF754FE594802784E
:1036100053A12348FCF74EFE5748027850A1224898
:10362000FCF748FE144804F093F940082C498D88B3
:1036300005EBD5712A4A128802EB6101A1EBC000AB
:1036400086B2002000902648C48804EBD470244A37
:10365000528802EB6000083881B24FF6FF73064AC9
:103660003046FEF761FB064804F072F9400885E039
:10367000C001001039020010740300103A0200105B
:103680008D0300103B020010A6030010780200100A
:10369000BF03001054000010D803001058000010A1
:1036A000F10300105C0000100A0400105C0100101F
:1036B00084010010AC010010D4010010E8010010DA
:1036C000FC010010100200108A0000101A02001005
:1036D00024020010456A652058000000C600001052
:1036E000D0000010456A652059000000DA00001083
:1036F000E40000104163656C65726F6D6574726FF4
:1037000020580000EE000010F80000104163656CC6
:1037100065726F6D6574726F2059000002010010B0
:103720000C0100104163656C65726F6D6574726F9A
:10373000205A00001601001020010010426F746F23
:103740006E2043002A01001034010010426F746F94
:103750006E205A003E01001048010010480200107F
:1037600025346400490200104A0200104B02001088
:103770004C0200109802001099020010FD498D883B
:1037800005EBD571FB4A128802EB6101A1EBC00089
:1037900086B200200090F748C48804EBD470F54A44
:1037A000528802EB6000083881B24FF6FF73F24A8C
:1037B0003046FEF7B9FAF14804F0CAF84008F0497B
:1037C0008D8805EBD571EE4A128802EB6101A1EB01
:1037D000C00086B200200090E948C48804EBD47091
:1037E000E74A528802EB6000083881B24FF6FF7357
:1037F000E24A3046FEF798FAE24804F0A9F8400899
:10380000E1498D8805EBD571DF4A128802EB610131
:10381000A1EBC00086B200200090DC48C48804EB15
:10382000D470D94A528802EB6000083881B24FF652
:10383000FF73D44A3046FEF777FAD54804F088F88B
:103840004008D4498D8805EBD571D24A128802EB25
:103850006101A1EBC00086B200200090CD48C48871
:1038600004EBD470CB4A528802EB6000083881B276
:103870004FF6FF73C64A3046FEF756FAC64804F0C4
:1038800067F84008C5498D8805EBD571C34A128891
:1038900002EB6101A1EBC00086B200200090BF489E
:1038A000C48804EBD470BD4A528802EB600008382B
:1038B00081B24FF6FF73B84A3046FEF735FAB84882
:1038C00004F046F84008B7498D8805EBD571B54A34
:1038D000128802EB6101A1EBC00086B200200090CB
:1038E000B048C48804EBD470AE4A528802EB600042
:1038F000083881B24FF6FF73A94A3046FEF714FA32
:10390000F8BD10B5FEF7A7FB044644B1A64A214610
:10391000A648FEF755FD0120A549087059E0002092
:10392000A34908700120A3490872A3490872A3495A
:103930000872A3490872A3490872A3490872A349EF
:103940000872A3490872A3490872A3490872A349DF
:103950000872A3490872A3490872A3490872A349CF
:103960000872A349087283490872A24908728449FF
:103970000872A149087284490872A04908728549F1
:1039800008729F490872854908729E4908728549E4
:1039900008729D4908729D4908729D4908729D49A7
:1039A00008729D4908729D4908729D4908727749BD
:1039B00008729C4908729C4908729C4908729C498B
:1039C00008729C4908729C4908729C4908729C497B
:1039D000087210BDF8B59B480078032803D09948B9
:1039E000007805283DD1984890F90000974991F951
:1039F0000010884206D01F234FF6FF7294A17B4827
:103A0000FEF7A6FD914890F90020AFF6F0419248EC
:103A1000FCF750FC904803F09BFF400873498D88E9
:103A200005EBD571714A128802EB6101A1EBC00070
:103A300086B2002000906D48C48804EBD4706B4AB5
:103A4000528802EB6000083881B24FF6FF73824A59
:103A50003046FEF769F97D4890F900007A49087010
:103A600043E07848007807283FD17C480078E0BBE5
:103A7000754890F90000754991F90010884206D008
:103A80001F234FF6FF7276A16048FEF761FD6F4875
:103A900090F90020AFF67C516F48FCF70BFC6E48A4
:103AA00003F056FF400859498D8805EBD571574AF8
:103AB000128802EB6101A1EBC00086B200200090E9
:103AC0005248C48804EBD470504A528802EB60001C
:103AD000083881B24FF6FF735F4A3046FEF724F98B
:103AE0005A4890F9000058490870F8BDF8B5554893
:103AF0000078032803D053480078052839D15A4864
:103B000090F90000594991F90010884206D01F230E
:103B10004FF6FF724EA11748FEF71AFD534890F971
:103B20000020AFF608611448FCF7C4FB124803F00C
:103B30000FFF40080F498D8805EBD5710D4A12889B
:103B400002EB6101A1EBC00086B2002000900948A1
:103B5000C48804EBD470074A528802EB600008382E
:103B600081B24FF6FF73044A3046FEF7DDF83F4856
:103B70007EE082E0E40000108D030010A603001038
:103B8000F8000010BF0300100C010010D401001059
:103B9000D803001020010010F103001034010010C0
:103BA0000A04001048010010080000104000001036
:103BB0003802001066010010700100108E01001024
:103BC00098010010B6010010C00100102E02001074
:103BD0008A000010940000109E000010A800001041
:103BE000B2000010BC000010C6000010D000001091
:103BF000DA000010EE0000100201001016010010A3
:103C00002A0100103E010010520100105C0100105A
:103C10007A01001084010010A2010010AC01001014
:103C2000CA010010DE010010E8010010F2010010CE
:103C3000FC01001006020010100200101A02001011
:103C4000240200103C0200107A000010390200101B
:103C50002020202020200000740300108800001085
:103C600020202020000000007B0000103A020010FD
:103C700090F90000FE49087046E0FE4800780728E9
:103C800042D1FD480078E8BBF94890F90000FB49B3
:103C900091F90010884207D01F234FF6FF72AFF250
:103CA0004001F748FEF754FCF44890F90020AFF6C5
:103CB0009471F448FCF7FEFAF24803F049FE40081C
:103CC000EF498D8805EBD571ED4A128802EB610151
:103CD000A1EBC00086B200200090E948C48804EB44
:103CE000D470E74A528802EB6000083881B24FF680
:103CF000FF73E44A3046FEF717F8E04890F90000F9
:103D0000DB4900E000E00870F8BDF8B5D94800785C
:103D1000032803D0D748007805283DD1DA4890F928
:103D20000000DA4991F90010884207D01F234FF6AE
:103D3000FF72AFF2E401D648FEF70AFCD34890F9CF
:103D40000020D449D448FCF7B5FAD34803F000FE6C
:103D50004008CF498D8805EBD571CD4A128802EB1A
:103D60006101A1EBC00086B200200090C848C48861
:103D700004EBD470C64A528802EB6000083881B266
:103D80004FF6FF73C44A3046FDF7CEFFBF4890F9A7
:103D90000000BD49087042E0B648007807283ED1CF
:103DA000B5480078D8BBB84890F90000B74991F9F8
:103DB0000010884206D01F234FF6FF72B7A1B84803
:103DC000FEF7C6FBB14890F90020B249B248FCF7B3
:103DD00071FAB14803F0BCFD4008B1498D8805EB8C
:103DE000D571AF4A128802EB6101A1EBC00086B227
:103DF00000200090AA48C48804EBD470A84A5288D6
:103E000002EB6000083881B24FF6FF73A24A3046D9
:103E1000FDF78AFF9D4890F900009B490870F8BDA6
:103E2000F8B594480078032803D092480078052814
:103E300046D19C4890F900009B490968884207D008
:103E40001F234FF6FF72AFF2F8119848FEF780FB80
:103E500095480068B0F5C87F04DD95A19548FCF74A
:103E600029FA06E09048AFF2087102689148FCF721
:103E700021FA904803F06CFD40088C498D8805EBD1
:103E8000D5718A4A128802EB6101A1EBC00086B2AB
:103E9000002000908548C48804EBD470834A52887F
:103EA00002EB6000083881B24FF6FF73814A30465A
:103EB000FDF73AFF7C48007840B27A4908704DE03F
:103EC0006C480078072849D16B480078002845D114
:103ED000744890F9000074490968884207D01F238C
:103EE0004FF6FF726B499C397348FEF731FB6E4801
:103EF0000068B0F5C87F04DD6DA16E48FCF7DAF903
:103F000006E06948AFF2A87102686A48FCF7D2F986
:103F1000684803F01DFD400867498D8805EBD571A1
:103F2000654A128802EB6101A1EBC00086B2002055
:103F300000906148C48804EBD4705F4A528802EB59
:103F40006000083881B24FF6FF735A4A3046FDF7D9
:103F5000EBFE5548007840B252490870F8BDF8B5FC
:103F600044480078032803D04248007805283BD114
:103F7000524890F9000052490968884207D01F232F
:103F80004FF6FF72AFF238314E48FEF7E1FA4C4877
:103F90004DA102684D48FCF78DF94C4803F0D8FC60
:103FA000400848498D8805EBD571464A128802EBD6
:103FB0006101A1EBC00086B2002000904148C48896
:103FC00004EBD4703F4A528802EB6000083881B29B
:103FD0004FF6FF733D4A3046FDF7A6FE384800789D
:103FE00040B23649087076E022480078072872D13E
:103FF00021480078D0BB314890F900003049096869
:10400000884207D01F234FF6FF72AFF2BC31304811
:10401000FEF79EFA2A482CA102682C48FCF74AF9C0
:104020002A4803F095FC400829498D8805EBD57195
:10403000274A128802EB6101A1EBC00086B2002082
:1040400000902348C48804EBD470214A528802EBC4
:104050006000083881B24FF6FF731C4A3046FDF706
:1040600063FE1748007840B2144933E033E00000A3
:104070007B0000103C020010880000103A02001083
:10408000840100108D0300107C0000103B02001022
:10409000F80000101C2D0000A603001020202000B6
:1040A000AC0100107D000010780200100C0100101F
:1040B0006D617800BF030010D40100107E00001075
:1040C000540000102001001025336400D8030010B4
:1040D000E80100100870F8BDF8B5FE480078032824
:1040E00003D0FC48007805283CD1FB4890F900003B
:1040F000FA490968884207D01F234FF6FF72AFF2D2
:10410000B041F748FEF724FAF448AFF244010268E0
:10411000F448FCF7CFF8F34803F01AFC4008F049E4
:104120008D8805EBD571EE4A128802EB6101A1EB97
:10413000C00086B200200090E948C48804EBD47027
:10414000E74A528802EB6000083881B24FF6FF73ED
:10415000E44A3046FDF7E8FDE048007840B2DE4929
:10416000087041E0DB48007807283DD1DE48007840
:10417000D0BBD94890F90000D8490968884206D0D8
:104180001F234FF6FF72D949D948FEF7E1F9D3480A
:10419000AFF2CC010268D348FCF78CF8D14803F0A9
:1041A000D7FB4008D2498D8805EBD571D04A1288DB
:1041B00002EB6101A1EBC00086B200200090CC4868
:1041C000C48804EBD470CA4A528802EB60000838F5
:1041D00081B24FF6FF73C34A3046FDF7A5FDBF48D5
:1041E000007840B2BC490870F8BDF8B5B94800780D
:1041F000032803D0B748007805283CD1BD4890F982
:104200000000BD490968884207D01F234FF6FF729E
:10421000AFF2C451B948FEF79BF9B748AFF2581155
:104220000268B748FCF746F8B54803F091FB400830
:10423000B2498D8805EBD571B04A128802EB610155
:10424000A1EBC00086B200200090AC48C48804EB0B
:10425000D470AA4A528802EB6000083881B24FF647
:10426000FF73A74A3046FDF75FFDA348007840B2D0
:10427000A049087042E09748007807283ED19A4844
:104280000078D8BB9B4890F900009B490968884298
:1042900007D01F234FF6FF72AFF24C619948FEF72B
:1042A00057F99548AFF2E01102689548FCF702F81B
:1042B000934803F04DFB400892498D8805EBD5717A
:1042C000904A128802EB6101A1EBC00086B2002087
:1042D00000908C48C48804EBD4708A4A528802EB60
:1042E0006000083881B24FF6FF73854A3046FDF70B
:1042F0001BFD8148007840B27E490870F8BD1CB5AE
:104300008148C07880498978CDE900107E4843789B
:1043100002787EA18148FBF7CDFF1F23DA027F4997
:104320007F48FEF715F91CBD01467E48007801283C
:104330001AD17D4800880A88904215DD08888A884D
:104340001044794A128890420EDD774840884A88A6
:10435000904209DD4888CA881044734A52889042C6
:1043600002DD0120087270470020087200BFFAE7E2
:1043700001466C48007801281ED16B4800880A88E5
:10438000904219DD08888A881044674A1288904252
:1043900012DD654840884A8890420DDD4888CA8809
:1043A0001044614A5288904206DD087A10B9012013
:1043B000087270470020FCE70020087200BFF8E791
:1043C000F8B55A48FFF7B0FF10B106204149087010
:1043D0004548007801287BD1554890F9000055499F
:1043E00091F90010884207D01F234FF6FF72AFF2F9
:1043F000A0715148FEF7ACF84E4890F90020AFF696
:10440000A0414E48FBF756FF4C4803F0A1FA400884
:1044100049498D8805EBD571474A128802EB610145
:10442000A1EBC00086B2002000904348C48804EB92
:10443000D470414A528802EB6000083881B24FF6CE
:10444000FF733E4A3046FDF76FFC3A4890F9000092
:10445000374908703A4890F900003A4991F900103C
:10446000884207D01F234FF6FF72AFF61C01364873
:10447000FEF76EF8334890F90020AFF61C51334830
:10448000FBF718FF314803F063FA40082E498D8886
:1044900005EBD5712C4A128802EB6101A1EBC0003B
:1044A00086B2002000902848C48804EBD470264AC5
:1044B000528802EB6000083881B24FF6FF73234A3E
:1044C0003046FDF731FC1F4890F900001C493FE0E1
:1044D0006FE100003C0200107F0000105800001047
:1044E00034010010F103001088000010802C00003F
:1044F000FC010010800000105C000010480100105A
:104500000A04001010020010044300102025642E3D
:1045100025642E25642E2564200000006000001014
:104520002402001038020010400000108A00001021
:104530008100001048020010D00000107403001029
:104540008200001049020010E40000108D030010EA
:104550000870B94890F90000B84991F900108842F4
:1045600007D01F234FF6FF72AFF61C11B448FDF7BA
:10457000EFFFB24890F90020AFF61C61B148FBF79D
:1045800099FEB04803F0E4F94008AD498D8805EB89
:10459000D571AB4A128802EB6101A1EBC00086B273
:1045A00000200090A648C48804EBD470A44A528826
:1045B00002EB6000083881B24FF6FF73A14A304623
:1045C000FDF7B2FB9D4890F900009B4908709E489A
:1045D00090F900009D4991F90010884207D01F23EF
:1045E0004FF6FF72AFF698119948FDF7B1FF974863
:1045F00090F90020AFF698619648FBF75BFE95486E
:1046000003F0A6F9400892498D8805EBD571904AD0
:10461000128802EB6101A1EBC00086B2002000907D
:104620008B48C48804EBD470894A528802EB60003E
:10463000083881B24FF6FF73864A3046FDF774FBA7
:10464000824890F9000080490870834890F9000082
:10465000824991F90010884207D01F234FF6FF725C
:10466000AFF614217E48FDF773FF7C4890F90020D7
:10467000AFF614717B48FBF71DFE7A4803F068F92A
:10468000400877498D8805EBD571754A128802EB91
:104690006101A1EBC00086B2002000907048C48880
:1046A00004EBD4706E4A528802EB6000083881B285
:1046B0004FF6FF736B4A3046FDF736FB674890F9BB
:1046C000000065490870684890F90000674909785A
:1046D000884207D01F234FF6FF72AFF68C21644843
:1046E000FDF736FF61480278AFF68C716148FBF741
:1046F000E1FD604803F02CF940085D498D8805EB29
:10470000D5715B4A128802EB6101A1EBC00086B251
:10471000002000905648C48804EBD470544A528854
:1047200002EB6000083881B24FF6FF73514A304601
:10473000FDF7FAFA4D4800784B4908704E4890F959
:1047400000004E490978884207D01F234FF6FF72B8
:10475000AFF604314A48FDF7FBFE48480278494964
:104760004948FBF7A7FD484803F0F2F840084449E0
:104770008D8805EBD571424A128802EB6101A1EBED
:10478000C00086B2002000903D48C48804EBD4707D
:104790003B4A528802EB6000083881B24FF6FF7343
:1047A000394A3046FDF7C0FA34480078324908707B
:1047B00041E03648FFF7B8FD28B135480078401C85
:1047C00040B2334908703348FFF7AEFD28B1324894
:1047D0000078401C40B2304908703048FFF7A4FD13
:1047E00028B12F480078401C40B22D4908702D4850
:1047F000FFF79AFD28B126480078401E40B22449B0
:1048000008702948FFF790FD28B123480078401E22
:1048100040B2214908702548FFF786FD28B120489D
:104820000078401E40B21E490870FFF7D3F8FFF72A
:104830005DF9FFF76AFAF8BD830000104A02001024
:10484000F8000010A6030010840000104B020010B6
:104850000C010010BF030010850000104C02001076
:1048600020010010D80300108600001098020010EC
:1048700034010010F10300108700001099020010AD
:1048800048010010603700000A04001066010010A3
:10489000390200108E0100103A020010B60100101B
:1048A0003B0200107001001098010010C0010010C0
:1048B0007248C06940F440207049C8610846C06928
:1048C00040F44010C8610846C06840F40040C86029
:1048D0006B48006840F040006949C439C1F8C40021
:1048E0006848694988610846C06C40F44060C86403
:1048F0000846C06C40F48050C8640846406940F0E7
:10490000020048610846406840F00900486070476E
:104910002DE9F05F8246BAF1000B01DB594601E058
:10492000CBF10001084607F05CFB80460022574BA4
:1049300007F082FB06460022554B07F091F904462A
:1049400007F022FB504908620846006D40F0050060
:104950000865FFF73FF8BAF1000F0BDD4D48C06B5B
:1049600040F480104B49C8630846806B40F4001047
:1049700088630AE04748806B40F4801045498863AB
:104980000846C06B40F40010C863BDE8F09F2DE9F5
:10499000F05F8246BAF1000B01DB594601E0CBF132
:1049A0000001084607F01DFB80460022374B07F048
:1049B00043FB06460022364B07F052F9044607F047
:1049C000E3FA314948620846006D40F00900086585
:1049D000FFF78CF8BAF1000F0BDD2E48C06B40F0EA
:1049E00000702C49C8630846806B40F08070886373
:1049F0000AE02848806B40F000702649886308462A
:104A0000C06B40F08070C863BDE8F09F2148006A29
:104A100040F480101F4908620846006A40F4001004
:104A200008620846006A40F0807008620846006A22
:104A300040F00070086270472DE9F14F009807F0D0
:104A4000D0FA80460022144B07F0F6FA0646002200
:104A5000124B07F005F904460022114B07F04CF801
:104A6000824607F091FA084908640846006D40F054
:104A700011000865FFF749F9BDE8F88F00C0024052
:104A8000C4C00F40D7B80500008001405CE3164168
:104A90000000594000C00920006AD84000805640FC
:104AA000804FE24010B502F057FB05F01BFC304888
:104AB00000680A21B0FBF1F0401E4FF0E021486190
:104AC0000520086110BD10B54FF0E020006900F42A
:104AD000803008B106F018FF10BDFBF718FE00206B
:104AE000FCF78BF8FDF74AF9002022490870FFF720
:104AF000DFFEFFF78BFF00F0E3F900F059FB01F058
:104B0000B7F8FBF7AFFB01F065F9022002461A4B3C
:104B100019684FF6FF031940184B0B4343EA022173
:104B2000154B196000BF4FF4165001F092FA00F0D7
:104B3000C7F9FBF7B1FBFFF7B5FF18E000F026F867
:104B400001F0BCFA0E4890F90000FFF7E1FE0D48B5
:104B500090F90000FFF71BFF0B4890F90000FFF7EA
:104B60006BFFFFF7B0FF05F0B1FDFBF78FFBE5E74B
:104B7000000000103C0200100CED00E00000FA05FF
:104B8000390200103A0200103B02001010B5FEF787
:104B9000B8FE65480078082876D2DFE800F0040DFA
:104BA000233B5D7688B00020FCF727F8FDF733FE45
:104BB00001205D490870B4E05C48FFF7B5FB10B117
:104BC0000220594908705A48FFF7AEFB10B1042083
:104BD000554908705748FFF7A7FB10B10620524906
:104BE00008709EE0002054490870084690F90000C3
:104BF000FFF722FF01F0AAF80020FBF7FEFFFDF708
:104C00002FFE03204849087000204C4908704C4989
:104C1000087086E04B4800684B490968884201DD0E
:104C200000F0BFF900F076FA01F02AF84748007862
:104C300010B94748007828B106203B490870002089
:104C40003D4908704348007810B94348007810B1D6
:104C500004203549087064E0002037490870084690
:104C600090F90000FFF7E8FE01F070F80020FBF774
:104C7000C4FFFDF783FF05202B49087000202F4952
:104C800008702F4908704CE04AE000F0F9FF2F4807
:104C9000007828B1062024490870002026490870B1
:104CA0002E48007810B102201F49087039E000201A
:104CB00021490870084690F90000FFF7BDFE01F099
:104CC00045F80020FBF799FF2548007838B9FEF732
:104CD000F8FB012022490870FFF711FB06E0FEF700
:104CE0009CF900201E490870FFF709FB07200E49B8
:104CF00008700020114908701149087011E000F097
:104D0000BFFFFFF75DFB1148007810B10220064994
:104D100008701048007810B104200349087000E0C2
:104D200000BF00BF10BD00003C0200109E0000103C
:104D3000A8000010B20000103B020010B5020010E5
:104D4000B402001078020010C80200108B0200109C
:104D50009A0200108C0200109B020010A4020010A6
:104D600088000010002001E0411CC8B26428FBDB71
:104D70007047002001E0411CC8B23228FBDB7047BD
:104D800000B5FFF7EFFF02204C498861FFF7EAFF0B
:104D900002204A49C86100BD00B5024600230FE069
:104DA00002F0800018B101204449886102E001202E
:104DB0004249C8615006020EFFF7E2FF581CC3B219
:104DC000082BEDDB3D48006820F001003B490860FE
:104DD000FFF7D6FF0120394988610846006840F096
:104DE00001000860FFF7BEFF00BD30B504460D4668
:104DF0003248806940F00300304988610846006805
:104E000040F003000860FFF7ADFF01202B49C861A7
:104E1000FFF7A8FF02202949C861FFF7A3FF610639
:104E2000090E0C462944C8B2FFF7B6FF30BD10B5D5
:104E300003462248006820F0010020490860002451
:104E400016E0FFF78FFF02201C498861FFF78AFFF9
:104E50005006020E1948406900F0010008B1501CCC
:104E6000C2B202201549C861FFF77CFF601CC4B2C2
:104E7000082CE6DB1BB101201049886102E001200B
:104E80000E49C8610D48006840F001000B490860F8
:104E9000FFF776FF104610BD00B501200749C86135
:104EA000FFF760FF022005498861FFF75BFF0120E3
:104EB00002498861FFF756FF00BD000000C00920CD
:104EC00010B5FFF74FFFFFF74DFF00215220FFF70E
:104ED0008CFFF020FFF760FF5520FFF75DFFFFF725
:104EE000DBFFFFF73FFFFFF73DFF00215220FFF7F9
:104EF0007CFFFB20FFF750FF0020FFF74DFFFFF77F
:104F0000CBFF10BD10B500215220FFF76EFF00202F
:104F1000FFF742FFFFF7C0FFFFF724FF01215220F8
:104F2000FFF763FF0020FFF782FF40B28A49087055
:104F30000020FFF77CFF40B2884908700020FFF78F
:104F400076FF40B2864908700020FFF770FF40B23C
:104F5000844908700020FFF76AFF40B28249087058
:104F60000120FFF764FF40B28049087008460078CE
:104F700000F0010018B901207D49087002E000200E
:104F80007B4908707948007800F0020018B90120C8
:104F90007849087002E0002076490870FFF77CFF2E
:104FA00010BD75480078002850D16C4890F9000079
:104FB00000280BDA694890F90000803064214843EA
:104FC0007F2190FBF1F06D49086011E0634890F992
:104FD000000000280CDB614991F90010803964223F
:104FE00001FB02F0C11700EB5161C911634A116066
:104FF000594890F9000000280DDA574991F900103E
:105000008131642201FB02F0C11700EB5161C9112B
:105010005B4A11600FE0504890F9000000280ADB5D
:105020004D4890F900007F38642148437F2190FB70
:10503000F1F0534908605148006840B95048006891
:1050400028B900204F4908704F49087061E04B486B
:10505000006858B14A48006840B948480078494952
:105060000870464800784849087052E04348006894
:1050700060B94348006848B141480078404241491E
:1050800008703F4800784049087042E03B4800689B
:1050900000281DDD3A480068D0B1384A116801EB9C
:1050A000D1725210364B186800EBD073A2EB63023A
:1050B000344B1A70314A116801EBD1725210304BE7
:1050C000186800EBD07302EB63022F4B1A7020E0DC
:1050D0002A48006800281CDA29480068C8B1274A15
:1050E000116801EBD1725210254B186800EBD07398
:1050F00002EB6302234B1A70204A116801EBD17254
:1051000052101F4B186800EBD073A2EB63021E4BCA
:105110001A707047124890F9000000280DDD104801
:1051200090F90000C0F17F005A2148433E2190FBD6
:10513000F1F040B2154908700CE0094890F9000000
:10514000803040425A2148433F2190FBF1F040B269
:105150000E49087070470000480200104902001014
:105160004A0200104B0200104C0200104D020010C9
:105170009902001098020010FC0200104402001076
:1051800040020010390200103A0200103B020010E9
:1051900010B5002807DACA06140E8D4A00F00F0376
:1051A0001B1FD45403E0CA06130E8A4A135410BDC1
:1051B00010B58948006840F480508749C439C1F867
:1051C000C4008648406840F48030844948600846FE
:1051D000C06840F04040C8600846406C40F4003071
:1051E00048640846C06C40F00040C8647A48E43027
:1051F00000687949C439C1F8A8017948006879493B
:105200000843774908602020C860162000F0D5F8D0
:1052100000211620FFF7BCFF10BD10B56E480068D6
:1052200040F480506C49C439C1F8C4006B484068F0
:1052300040F48020694948600846406C40F40020F2
:1052400048646548E43000686349E43108606648B2
:10525000634908600420C860162000F0AEF8002101
:105260001620FFF795FF10BD2DE9F0415F4800784B
:105270005F490968884232D159488069C0F30720E4
:105280005C490860084602785B4801880088401C39
:10529000594B1880594842545148006840F080707A
:1052A0004F490860162001218140554A430942F8C0
:1052B000231000BF5048008843F6FF5188424BD16D
:1052C00000204D49088046490860FFF771FF012022
:1052D0004C4948604C480078444908703CE04048DC
:1052E000006820F480303E49086008464069C0F3F9
:1052F0000B10464908603A48406AC0F30B10444915
:105300000860424800686421B0FBF1F4204606F0D2
:105310007FFE054600223F4B06F08EFE074606F054
:1053200033FE3D4908603A4800686421B0FBF1F45F
:10533000204606F06DFE05460022364B06F07CFE48
:10534000074606F021FE35490860334800680968C1
:105350000844400832490860BDE8F08110B50446B1
:1053600030480068844208D12E4800781F490870F0
:1053700000F043FA01202C4948601D48006884422F
:105380000DD11B4800781949087000F036FA012049
:1053900025494860FFF741FF02201A494860234829
:1053A0000068844208D1214800781049087000F054
:1053B00024FA01201C49486010BD00F01F020121A1
:1053C00091404209920002F1E022C2F800117047B8
:1053D00018ED00E000E400E0C4C00F4000C002404F
:1053E0000040034022012000040120015C02001063
:1053F0006402001054020010700200102304001018
:1054000080E100E0000009406C0200105002001032
:105410005802001000000440540000105800001012
:105420005C00001060020010008000406802001064
:1054300010B5002807DACA06140EFD4A00F00F0363
:105440001B1FD45403E0CA06130EFA4A135410BDAE
:1054500010B5F948006840F00200F749C439C1F8B6
:10546000C40018204FF04021C8600320486142F278
:10547000107088612120C863012048600421FFF773
:10548000D7FF012000F076FC10BD10B54FF0402092
:10549000006840F002004FF040210860E7480068D3
:1054A000401CE6490860E6480068401CE449086082
:1054B000E4480068401CE3490860E3480068401C79
:1054C000E1490860DD480068132808D1DF4800780A
:1054D00028B90020D9490860FFF714FD0AE0D74831
:1054E0000068132806D1D9480078012802D100208D
:1054F000D2490860D248006831285AD1D44800788F
:10550000012856D1D34800780A3040B2D1490870FA
:10551000084690F90000FFF78FFA0020C84908609C
:10552000CD480068CD490968884215D90020C44992
:105530000860C84890F90000C94908600020C549C2
:105540000870084690F90000FFF776FA0020C0497D
:1055500008700120C3490870BE4800785A2811D14C
:10556000C148006801280DDAA620BA49087008462B
:1055700090F90000FFF760FABB480068401CBA4988
:1055800008601CE0B34800785A2818D1B648006873
:10559000012814D10020AF490870084690F9000096
:1055A000FFF74AFA0120B14908700020A8490870A5
:1055B00005E0A748007810B90020A1490860AC4870
:1055C0000078012809D1AB48007830B94620AA49B3
:1055D00008700020A949087016E0A6480078012844
:1055E00009D1A348007830B90020A34908704620AB
:1055F000A249087008E09F48007828B99C480078C4
:1056000010B900208F4908608E4800683C2810D1EE
:1056100097480078012803D096480078012808D1DF
:105620000020954908709549087091490870914982
:105630000870844800683C2802DD00208149086029
:105640008F48007828B18F480068401C8D49086059
:1056500020E08C480068C7280ADD8B480068C7280E
:1056600006DD01208949087000208649086011E0A4
:105670008448006800280ADD83480068002806DDA9
:1056800001208349087000207E49086002E0002064
:105690007C4908607F48007828B17B480068401C3E
:1056A0007949086020E077480068C7280ADD764815
:1056B0000068C72806DD012074490870002072497F
:1056C000086011E06F48006800280ADD6E48006835
:1056D000002806DD01206E49087000206A49086034
:1056E00002E00020684908606B48007828B16B48E8
:1056F0000068401C6949086041E068480068C728A4
:105700000CDD67480068C72808DD0120654908707E
:105710000020624908606249086030E05F48006824
:1057200000280CDD5E480068002808DD01205E4985
:105730000870002059490860594908601FE057481F
:105740000068C72809DD5648006830B9012057496C
:10575000087000205149086011E050480068002896
:105760000DDD4F48006850B900204C490860504892
:105770000078032803D14F480068FFF7EFFD4E483B
:10578000007828B146480068401C4549086033E06D
:1057900042480068C7280CDD41480068C72808DD7A
:1057A00001204049087000203D4908603B490860DD
:1057B00022E03A48006800280CDD394800680028DB
:1057C00008DD012038490870002035490860334958
:1057D000086011E03248006800280DDD2F4800689D
:1057E00050B900202E49086031480078032803D1C1
:1057F00032480068FFF7B2FD10BD10B50E480068D2
:1058000040F004000C49C439C1F8C40000202C4900
:10581000C8600320486140F6344088610220486037
:1058200000F0A8FA04210220FFF702FE10BD0000DC
:1058300018ED00E000E400E0C4C00F40A802001032
:10584000B8020010BC0200107C020010FC02001024
:10585000B40200103B0200105C0000108402001033
:10586000C402001080020010C0020010B502001037
:10587000B6020010B7020010390200103A02001000
:105880008902001090020010940200108B02001098
:105890008C0200108A020010980200109C02001076
:1058A000A00200109A0200109B020010A402001037
:1058B0003C020010640200109902001068020010FF
:1058C0000080004010B5F948006840F00100F74939
:1058D0000860F7480078F749096888420BD1F64814
:1058E00001880088401CF44A1080F448405C0002A3
:1058F000F34908601DE0EE480078F24909688842E3
:105900000BD1ED4801880088401CEB4A1080EE481E
:10591000405C0002EA4908600BE0E5480078EB498A
:105920000968884205D10420E949C860162000F0C2
:1059300021FAE148008843F6FF5188420FD1002048
:10594000DD4908800220D94948600020DC49086010
:10595000FFF72EFCDF480078D54908701AE0D648DA
:10596000008841F6FF61884214D1D1480078D149BE
:10597000096888420ED10020CF4908800220CB4917
:1059800048600020CE490860FFF712FCD14800783B
:10599000C749087010BD10B5CF48006840F48000BA
:1059A000CD49C439C1F8C400CC48406A40F0007009
:1059B000CA4948621820CA494861CA48C861C22019
:1059C000C86301204860032000F0D4F904210320BB
:1059D000FFF72EFD10BD10B5C148006840F0020071
:1059E000BF490860BA48006840F48030B849086090
:1059F000FEF7B5FAFEF770FBFEF7F7FBBA48007842
:105A0000052872D1B9480068B949096888427BDD28
:105A1000B8480078002877D1B7480078002873D1BB
:105A2000B6480068B6490968884231D3B54800785D
:105A300070BB0020B4490870084690F90000FEF7DA
:105A4000FBFF0020B1490860B1490870B1490870F6
:105A5000B1480068B1490968884206D93C20B0497C
:105A600008704B20AF49087074E0AB480068AB4940
:105A70000968884206D24B20A94908703C20A949F0
:105A8000087067E04B20A7490870A549087061E0DD
:105A90009F48007888B99F48007870B99B48006893
:105AA00058B9A62098490870084690F90000FEF7FA
:105AB000C3FF0120974908704CE095480078012801
:105AC00005D14620974908709549087042E08F48F3
:105AD000006800280ADA3C20914908704B2091495F
